:020000040800F2
:10000000200400209D01000839130008A1120008F7
:1000100035130008E10900080D1400080000000075
:100020000000000000000000000000004113000874
:10003000E5090008000000003D1300084513000812
:10004000B7010008B7010008B7010008B7010008B0
:10005000B7010008B7010008B7010008B7010008A0
:10006000B7010008B7010008B7010008B701000890
:10007000B7010008B7010008B7010008B701000880
:10008000B7010008B7010008B7010008B701000870
:10009000B7010008B7010008B7010008B701000860
:1000A000B7010008B7010008B7010008B701000850
:1000B000B7010008B7010008B7010008B701000840
:1000C000B7010008B7010008B7010008B701000830
:1000D000B7010008B7010008B7010008B701000820
:1000E000B7010008B7010008B7010008B701000810
:1000F000B7010008B7010008B7010008B701000800
:10010000B7010008B7010008B7010008B7010008EF
:10011000B7010008B7010008B7010008B7010008DF
:10012000B7010008B7010008B7010008B7010008CF
:10013000B7010008B7010008B7010008B7010008BF
:10014000B7010008B7010008B7010008B7010008AF
:10015000B7010008B7010008B7010008B70100089F
:10016000B7010008B7010008B7010008B70100088F
:10017000B7010008B7010008B7010008000000003F
:10018000B7010008B7010008DFF80CD000F092FAC0
:10019000004800471114000820040020064880474A
:1001A00006480047FEE7FEE7FEE7FEE7FEE7FEE75C
:1001B000FEE7FEE7FEE7FEE7F91300088901000805
:1001C0002DE9F05F0546002092469B46884606468C
:1001D000814640241BE0284641464746224600F01F
:1001E000E9F953465A46C01A914110D311461846B0
:1001F000224600F0D0F92D1A67EB01084F4622463F
:100200000120002100F0C7F917EB00094E41201E24
:10021000A4F10104DFDC484631462A464346BDE8E6
:10022000F09F2DE9FE4F804681EA0300C00F0C4687
:10023000009021F0004123F00045B8EB0200A941F5
:1002400005D24046214690461C460B46024623F006
:100250000040104347D0270DC7F30A00C3F30A51EB
:100260000290401A019040286BDAC3F3130040F467
:10027000801B0098924620B10023D2EB030A63EB67
:100280000B0B01985946C0F14002504600F083F92B
:1002900006460D4650465946019A00F09BF910EB70
:1002A00008006141002487EA115284EAE7731A4387
:1002B00040D0009A62B3019A012A4FEA075215DC36
:1002C000001B61EB02014FF0004202EA0752CDE948
:1002D0000042001C41F5801132462B4600F09BF98C
:1002E00003B0BDE8F08F40462146F9E7001B61EB03
:1002F0000201001C41F5801300185B412018A2F593
:10030000001747EB030140EAD570B6196D4111E0C3
:100310006D084FEA360645EAC0754FEA0752001BE2
:1003200061EB0201001C41F5801149084FEA3000E1
:100330000019514132462B4603B0BDE8F04F00F0A2
:100340005BB90098012240000023D0EB020263EB6E
:10035000E073009821464FEAE074B8EB000061EBCF
:100360000401E9E783F000435BE781F0004158E7CF
:100370002DE9FE4F81EA030404F0004421F000411E
:1003800000944FF0000B23F0004350EA01045ED0CC
:1003900052EA03045BD0C3F30A54C1F30A552C4458
:1003A000A4F2F3340194A0FB0254C1F3130141F40D
:1003B0008011C3F3130343F4801301FB024400FBD9
:1003C000034E840A970A44EA815447EA8357A4FB00
:1003D000076802958D0A05FB07854FEA932C04FBFD
:1003E0000C542705029D4FEA065847EA1637B5EB2D
:1003F00008056EEB070C870E920E47EA811742EA5A
:100400008312A7FB0201B6EB0B0164EB00042B0D7A
:1004100043EA0C335E1844EB1C50DA465146E7FBC6
:100420000201C5F313044FEA0B3343EA14534FEAB6
:100430000432019C43EA0603A4F10C040294009CDC
:10044000CDE900B400F0E7F803B0BDE8F08F00207C
:100450000146F9E72DE9F04D81EA030404F0004B71
:1004600021F0004514464FF0000A23F0004150EA05
:10047000050220D054EA01021DD0C5F30A570246F6
:10048000C5F31303C1F31300C1F30A5640F48015FA
:1004900043F48013A7EB0608101BD64608F2FD387C
:1004A00073EB050002D308F1010801E092185B41EB
:1004B000B8F1000F03DA00200146BDE8F08D0020FE
:1004C0004FF48011064684460EE0171B73EB0507B8
:1004D00005D3121B63EB050306434CEA010C4908E4
:1004E0004FEA300092185B4150EA0107EDD152EA21
:1004F000030012D082EA040083EA0501084305D014
:10050000101BAB4106D20122002306E000224FF06F
:10051000004302E06FF0010253101AEB06004CEBAF
:10052000085110EB0A0041EB0B01BDE8F04D00F063
:1005300063B870B5C1F30A5201F000450024C1F35D
:10054000130140F2FF3341F480119A4201DA002096
:1005500070BD40F233439A42A2F2334203DC52426E
:1005600000F028F800E090402C43F1D0404270BDEC
:1005700000F0004230F000400AD0C10D01F560717A
:10058000C0F3160042EA0151C20840071143704708
:10059000002001467047202A04DB203A00FA02F1CD
:1005A000002070479140C2F1200320FA03F3194361
:1005B00090407047202A04DB203A21FA02F0002103
:1005C000704721FA02F3D040C2F120029140084363
:1005D00019467047202A06DBCB17203A41FA02F071
:1005E00043EAE07306E041FA02F3D040C2F1200290
:1005F000914008431946704710B5141E73F100046A
:1006000008DA401C41F1000192185B411A4301D104
:1006100020F0010010BD2DE9F04D92469B4611B12E
:10062000B1FA81F202E0B0FA80F220329046FFF790
:10063000B2FF04460F4640EA0A0041EA0B01534666
:100640005A46084313D0114653EA010019D0C8F1A5
:1006500040025046FFF7AEFF05460E46504659464B
:100660004246FFF798FF084305D0012004E02046EA
:100670003946BDE8F08D0020054346EAE0762C437C
:1006800037430A986305E40AA0EB08000022FD0A3C
:1006900044EA47540A3002D500200146E9E7010543
:1006A00010196941DDE9084500196941BDE8F04DBF
:1006B000A2E70000064C074D06E0E06840F00103A9
:1006C00094E8070098471034AC42F6D3FFF760FD7A
:1006D000FC1400081C1500082DE9F04F81B02DED29
:1006E000048B0025C4F2020505F500641746DDF809
:1006F00048800F9E20460121012200F067FA204623
:100700000221012200F062FA204604210122042481
:1007100000F05CFA28460221012200F057FA284630
:100720000421012200F052FA2846082101224FF04C
:10073000080A00F04BFA28461021012200F046FA80
:1007400028462021012200F041FA284640210122BA
:100750004FF0400B00F03AFA64F30F0740F6000444
:1007600040F20109C4F20204C0F20209002021464D
:100770004A463B4600F03EF89FED1C8A9FED1C9ACE
:10078000B0EE480AF0EE490A204649463A4600F0E3
:100790005BF802246AF30F06C0F204040020294625
:1007A0002246334600F026F8B0EE480AF0EE490A39
:1007B00028462146324600F047F810246BF30F0814
:1007C000C0F22004002029462246434600F012F8D9
:1007D000B0EE480AF0EE490A284621464246BDECF2
:1007E000048B01B0BDE8F04F00F02EB800E02B46BE
:1007F00000000000022888BF70472DE9F04381B057
:10080000044641F2E440C0F600009FB291460D4616
:1008100030F814800846394600221E4600F0D6F90A
:10082000404629464A46334600F020FE28463946CF
:10083000012200F0CBF940F21000C2F20000047077
:1008400001B0BDE8F04370472DE9F0472DED048B72
:100850000446012092460E46B0EE608AB0EE409A01
:100860004FF0010800F0C0F89FED5C1A9FED5A0AA6
:10087000B5EE408AF1EE10FAB8BFB0EE408AB4EEA1
:10088000418AB2EE060AF1EE10FAC8BFB0EE418A14
:1008900028EE000ABDEEC00A10EE100A40F2100960
:1008A00040F44040C2F20009C9F8080019EE100AED
:1008B000370CFFF75DFE9FED420B53EC102BFFF75B
:1008C00057FD9FED410B53EC102BFFF7C3FD9FED40
:1008D000400B53EC102BFFF7A4FCFFF72AFE810B13
:1008E00068F39F3068F39F31A9F80200A9F804105B
:1008F000B1B22046012200F069F9204639460122B2
:1009000000F064F91FFA8AF720463946012200F008
:100910005DF920463946002200F058F9012000F028
:1009200063F84FF4045021463246534600F09EFDD2
:10093000B9F8020021463246534600F097FDB9F857
:10094000040021463246534600F090FDB9F80800F5
:1009500021463246534600F089FD4FF400502146AF
:100960003246534600F082FD012000F03DF820465B
:100970003946012200F02AF999F80050022D17D8C3
:1009800041F2E440C0F6000030F8158020463946B8
:10099000002200F01BF9404621463246534600F043
:1009A00065FD20463946012200F010F989F8005013
:1009B0000120BDEC048BBDE8F04700F015B800BF86
:1009C000000000000000B0410000000084D7774123
:1009D000000000000000F03F000000000000B443F1
:1009E000FEE7000070470000B0B5044600F0F4F8E0
:1009F000054640F20000C2F200000078611C18BFFA
:100A0000044400BF00F0E8F8401BA042FAD3B0BD98
:100A10002DE9F04F82B000F13E4241F6004502F16F
:100A2000FF77C4F2020508224FEAB726A84208BFA2
:100A30000722072E38BF4FEAB7224FF0010A0024E1
:100A400000274FF00008009208E000BF023708F1CD
:100A50000108202F04F1040400F0B4800E680AFAA3
:100A600008F916EA090FF1D0D1F804A00AF0030B37
:100A7000ABF10106012E17D80322866802FA07FEA1
:100A8000CA6826EA0E06BA40324382604268CAF358
:100A9000001522EA090205FA08F54FEA480C6FEA48
:100AA0000E062A4342600BE00322BA40D643BBF154
:100AB000030FBC4604D1BC464FF0030B22E000BF3D
:100AC000C2688D68324005FA0CF52A43BBF1020F6B
:100AD000C26017D16FF0030202EA5802024404F028
:100AE0001C030F25D2F820E005FA03FA0D692EEA5F
:100AF0000A0E05FA03F343EA0E031362D1F804A0C9
:100B00000AF0030B02680BFA0CF332401A431AF492
:100B1000403F4FF0010A026098D0002243F64403A0
:100B20000192C4F202031A6843F6004E42F4804276
:100B30001A601A68C4F2010E02F480420192019A0E
:100B400028F003024FF6084C7244CFF6FF7C52F8AF
:100B50000C3004F00C060F25B540AB43009D05FAA0
:100B600006F6334342F80C30DEF808204B6842EAC0
:100B7000090643F60C4CDD0258BF22EA0906CEF8FE
:100B80000860C4F2010CDCF800209D0242EA09066C
:100B900058BF22EA0906CCF80060DEF804209D0365
:100BA00042EA090658BF22EA0906CEF80460DEF8D8
:100BB0000020DB0342EA090658BF22EA0906CEF804
:100BC000006043E702B0BDE8F08F0000002A08BFD4
:100BD000090481617047000040F21C00C2F200006D
:100BE0000068704740F2000040F21C01C2F20000B1
:100BF000C2F2000100780A681044086070470000E3
:100C000080B543F60040C4F20200016841F400716F
:100C10000160016841F480610160016841F4807104
:100C20000160032000F074F80F2000F005F800F0D8
:100C300027F8002080BD000070B540F20006C2F227
:100C4000000640F208013278C2F200014FF47A73D4
:100C50000968B3FBF2F20446B1FBF2F1084600F07A
:100C600009FB0F2C4FF0010508D838B94FF0FF30C1
:100C700021460022002500F01FF87460284670BD50
:100C800082B0002043F640010190C4F202014A689C
:100C900042F480424A604A6802F480420192019A1A
:100CA0000090086840F080500860086800F08050AC
:100CB0000090009802B0704710B54EF60C5CCEF272
:100CC000000CDCF80030C3F3022E8EF00704042C75
:100CD00028BF0424BEF103034FF0FF3E0EFA04F4D4
:100CE00038BF0023A14399400EFA03F39A431143FE
:100CF00000F00F02043A624409010C3200F1604333
:100D0000B0F1FF3FC8BF03F56442117010BD000091
:100D10004EF60C51CEF200010A684FF6FF031A405E
:100D200060F30A2242F0806040F0FD700860704776
:100D30002DE9F041002800F08B8043F60808C4F24A
:100D400002080446D8F8F8030D4600F00700884270
:100D500007D288F8F853D8F8F80300F00700A84243
:100D600076D12068810717D5410705D5D8F800103E
:100D700041F4E051C8F80010010705D5D8F800107B
:100D800041F46041C8F80010D8F80010A26821F0C2
:100D9000F0011143C8F80010C0073FD1D8F8F8039C
:100DA00000F00700A84207D988F8F853D8F8F803EC
:100DB00000F00700A8424BD12068410707D5D8F8BA
:100DC0000010E26821F4E0511143C8F80010000758
:100DD00008D5D8F80000216920F4604040EAC1003D
:100DE000C8F8000000F054F8D8F8001041F2EA42C8
:100DF000C1F30311C0F60002515C40F2080220FA70
:100E000001F140F20400C2F200000068C2F20002E8
:100E10001160FFF711FF0020BDE8F0816068811EBE
:100E2000022907D258F8081C89015CBF0120BDE8DF
:100E3000F08111E0012807D158F8081C89035CBF34
:100E40000120BDE8F08107E058F8081C890703D4A9
:100E50000120BDE8F08100BFD8F8001021F00301A7
:100E60000843C8F80000FFF7B7FE064641F288378E
:100E7000D8F80000616800F00C00B0EB810F8DD055
:100E8000FFF7AAFE801BB842F2D90320BDE8F0812B
:100E900010B543F60404C4F20204606800F00C00CC
:100EA00008280BD0042819BF42F20040C0F2F40019
:100EB00047F64000C0F27D1010BD00BF20682168D9
:100EC0002368490247F64001C0F27D1100F03F025D
:100ED000C3F388105CBF42F20041C0F2F401A1FBF1
:100EE00000010023FFF76CF921680222C1F30141E0
:100EF00002EB4101B0FBF1F010BD00002DE9F04123
:100F000082B000286AD00446007843F60006C00785
:100F1000C4F202060BD0B06800F00C00042840F0C8
:100F2000A1803068800302D56068002856D0207800
:100F300080071AD5B06810F00C0F09D0B06800F027
:100F40000C00082840F0A8807068400200F1A480DE
:100F50003068800702D5E06801283FD130682169F8
:100F600020F0F80040EAC10030602078000739D452
:100F7000207840074ED4A5695DB3B06800F00C003E
:100F8000082840F0BD80012D28D07068E16900F488
:100F900080028A4222D1216A00F03F028A421DD19A
:100FA00047F6C071626A0140B1EB821F16D1A26A96
:100FB0000023CFF6FF7303EBC23200F440316FF32E
:100FC0000F0291420AD1E16A00F07060B0EB016F4C
:100FD00004D1002002B0BDE8F08100BF012002B0C2
:100FE000BDE8F0816069002840F20000C4F24720AB
:100FF00076D00121C0F8801EFFF7EEFD054600BF48
:10100000706F8007B4D4FFF7E7FD401B0228F7D9C3
:10101000DDE000BF306C10F080580AD10020019054
:10102000306C40F080503064306C00F080500190A3
:10103000019847F20007C4F200073868C00541D4A0
:10104000386840F480703860FFF7C6FD054600BF81
:101050003868C00536D4FFF7BFFD401B0228F7D91A
:10106000B5E000BFB06800F00C00082803D170683C
:1010700040023FF556AF6068B0F5803F07D0B0F54D
:10108000A02F40F08D80306840F4802030603068C0
:1010900040F4803030608DE0E068002852D00020BD
:1010A000C4F2472001210160FFF796FD054600BF0D
:1010B000306880073FF552AFFFF78EFD401B0228D6
:1010C000F6D984E0A068012805D005284ED1306FFC
:1010D00040F004003067306F40F0010030674FE0AF
:1010E0000021C0F8801EFFF777FD0546706F80076E
:1010F0007FF53EAFFFF770FD401B0228F6D966E092
:101100000027C4F2472700203866FFF765FD022D4F
:1011100005460BD1306880015ED5FFF75DFD401BB1
:1011200002284FF00300F5D954E700BF3068800172
:101130007FF54FAFFFF750FD401B02284FF0030033
:10114000F4D947E70020C4F2472000210160FFF7EF
:1011500043FD0546306880077FF507AFFFF73CFD8C
:10116000401B02284FF00300F4D933E7316F002809
:1011700021F001013167316F21F0040131674DD059
:10118000FFF72AFD054641F2883700BF306F800720
:1011900056D4FFF721FD401BB842F7D917E000BF36
:1011A0003168002821F480313160316821F48021D8
:1011B00031604FD0FFF710FD054600BF3068800357
:1011C0003FF5B5AEFFF708FD401B6428F6D90320B4
:1011D00002B0BDE8F08100BF04F11C052FCD08432B
:1011E0000021CFF6FF7140EA821001EBC3316FF3AB
:1011F0000F0140EA05600843706001203866FFF780
:10120000EBFC0446306880013FF5E3AEFFF7E4FCF9
:10121000001B02284FF00300F4D9DBE6FFF7DCFCEB
:10122000054641F2883700BF306F800708D5FFF7C9
:10123000D3FC401BB8424FF00300F5D9CAE600BF0B
:10124000B8F1000F7FF497AE306C20F0805030641E
:1012500091E600BFFFF7C0FC054600BF3068800381
:101260007FF565AEFFF7B8FC401B64284FF0030024
:10127000F4D9AFE6411E0020B0EB116F1CBF012076
:1012800070474EF21002CEF2000251604EF623512A
:10129000CEF20001F0230B700721906011607047BF
:1012A000FEE700002DE9F04786B0002743F6300046
:1012B00005970097C4F20200016840F2000941F06E
:1012C000040101600168C4F2020901F00401009107
:1012D00000990097016809F5006541F0010101607E
:1012E0000068072100F001000090009828460022C5
:1012F0000726FFF76BFC48467E2100224FF07E0850
:10130000FFF764FC019601AE4FF0010A0224284663
:101310003146CDE902A70494FFF77AFB48463146EF
:10132000CDE9018ACDE90374FFF772FB06B0BDE891
:10133000F0870000FEE70000FEE7000070470000B5
:1013400070470000FFF74EBCB0B592B0002443F6E2
:1013500040000B94CDE90944CDE907440594CDE95B
:101360000344CDE901440094C4F20200016802255F
:1013700041F080510160006800F0805000900098BA
:1013800047F200000094C4F20000016841F480417B
:101390000160006800F480400090009801200990EE
:1013A00010200A9008200E90A820CDE90F050420F7
:1013B000119006A80695CDE90C54FFF79FFD28B1C2
:1013C000EFF3108072B600BFFEE700BF0F20CDE93B
:1013D00001054FF4A05004904FF48050059001A8EF
:1013E00005210394FFF7A4FC20B1EFF3108072B63F
:1013F000FEE700BF12B0B0BD4EF68850CEF200003E
:10140000016841F47001016070470000FEE70000D0
:1014100086B0FFF7F5FBFFF797FFFFF743FFFFF7F6
:101420005BF99FED108A9FED109A00BF0020FFF737
:10143000E1F9B0EE480AF0EE490AFFF705FA00209C
:10144000FFF7D8F9B0EE480AF0EE490AFFF7FCF9C9
:101450000020FFF7CFF9B0EE480AF0EE490AFFF797
:10146000F3F9E3E700E02B46000000002DE9F0412E
:101470000C460546170C00261FFA82F8A8B2C20BCC
:1014800020464146FFF7A2FB0120FFF7ADFA2046B8
:1014900039460022FFF79AFB0120FFF7A5FA204604
:1014A00039460122FFF792FB6D000F2E06F101066F
:1014B000E4D3204641460022FFF788FB0120BDE827
:1014C000F041FFF791BA02E008C8121F08C1002AD4
:1014D000FAD170477047002001E001C1121F002AB5
:1014E000FBD17047002028200220000000000000EF
:1014F0000000010203040607080900002015000887
:101500000000002010000000C6140008301500087C
:101510001000002010040000D61400080000000095
:1015200001000000100000000024F4000000000092
:040000050800018965
:00000001FF
